{
  "contractName": "guild",
  "abi": [
    {
      "inputs": [
        {
          "internalType": "address",
          "name": "rarity_address",
          "type": "address"
        },
        {
          "internalType": "address",
          "name": "gold_address",
          "type": "address"
        }
      ],
      "stateMutability": "nonpayable",
      "type": "constructor"
    },
    {
      "inputs": [
        {
          "internalType": "uint256",
          "name": "",
          "type": "uint256"
        }
      ],
      "name": "erc721_parent_contract",
      "outputs": [
        {
          "internalType": "address",
          "name": "",
          "type": "address"
        }
      ],
      "stateMutability": "view",
      "type": "function",
      "constant": true
    },
    {
      "inputs": [],
      "name": "gd",
      "outputs": [
        {
          "internalType": "contract gold",
          "name": "",
          "type": "address"
        }
      ],
      "stateMutability": "view",
      "type": "function",
      "constant": true
    },
    {
      "inputs": [
        {
          "internalType": "uint256",
          "name": "",
          "type": "uint256"
        }
      ],
      "name": "guild_names",
      "outputs": [
        {
          "internalType": "string",
          "name": "",
          "type": "string"
        }
      ],
      "stateMutability": "view",
      "type": "function",
      "constant": true
    },
    {
      "inputs": [
        {
          "internalType": "uint256",
          "name": "",
          "type": "uint256"
        },
        {
          "internalType": "address",
          "name": "",
          "type": "address"
        }
      ],
      "name": "guild_shares",
      "outputs": [
        {
          "internalType": "uint256",
          "name": "",
          "type": "uint256"
        }
      ],
      "stateMutability": "view",
      "type": "function",
      "constant": true
    },
    {
      "inputs": [
        {
          "internalType": "uint256",
          "name": "",
          "type": "uint256"
        }
      ],
      "name": "guild_total_shares",
      "outputs": [
        {
          "internalType": "uint256",
          "name": "",
          "type": "uint256"
        }
      ],
      "stateMutability": "view",
      "type": "function",
      "constant": true
    },
    {
      "inputs": [],
      "name": "guild_treasury_summoner",
      "outputs": [
        {
          "internalType": "uint256",
          "name": "",
          "type": "uint256"
        }
      ],
      "stateMutability": "view",
      "type": "function",
      "constant": true
    },
    {
      "inputs": [],
      "name": "internal_erc721_id",
      "outputs": [
        {
          "internalType": "uint256",
          "name": "",
          "type": "uint256"
        }
      ],
      "stateMutability": "view",
      "type": "function",
      "constant": true
    },
    {
      "inputs": [
        {
          "internalType": "uint256",
          "name": "",
          "type": "uint256"
        }
      ],
      "name": "internal_id_to_erc721_id",
      "outputs": [
        {
          "internalType": "uint256",
          "name": "",
          "type": "uint256"
        }
      ],
      "stateMutability": "view",
      "type": "function",
      "constant": true
    },
    {
      "inputs": [],
      "name": "rm",
      "outputs": [
        {
          "internalType": "contract rarity",
          "name": "",
          "type": "address"
        }
      ],
      "stateMutability": "view",
      "type": "function",
      "constant": true
    },
    {
      "inputs": [
        {
          "internalType": "address",
          "name": "operator",
          "type": "address"
        },
        {
          "internalType": "address",
          "name": "from",
          "type": "address"
        },
        {
          "internalType": "uint256",
          "name": "tokenId",
          "type": "uint256"
        },
        {
          "internalType": "bytes",
          "name": "data",
          "type": "bytes"
        }
      ],
      "name": "onERC721Received",
      "outputs": [
        {
          "internalType": "bytes4",
          "name": "",
          "type": "bytes4"
        }
      ],
      "stateMutability": "nonpayable",
      "type": "function"
    },
    {
      "inputs": [
        {
          "internalType": "uint256",
          "name": "guild_id",
          "type": "uint256"
        },
        {
          "internalType": "string",
          "name": "name",
          "type": "string"
        }
      ],
      "name": "guild_name",
      "outputs": [],
      "stateMutability": "nonpayable",
      "type": "function"
    }
  ],
  "bytecode": "0x60806040526103e86007553480156200001757600080fd5b506040516200112f3803806200112f83398181016040528101906200003d919062000233565b81600860006101000a81548173ffffffffffffffffffffffffffffffffffffffff021916908373ffffffffffffffffffffffffffffffffffffffff16021790555080600960006101000a81548173ffffffffffffffffffffffffffffffffffffffff021916908373ffffffffffffffffffffffffffffffffffffffff160217905550600860009054906101000a900473ffffffffffffffffffffffffffffffffffffffff1673ffffffffffffffffffffffffffffffffffffffff166307b018ef6040518163ffffffff1660e01b8152600401602060405180830381600087803b1580156200012a57600080fd5b505af11580156200013f573d6000803e3d6000fd5b505050506040513d601f19601f820116820180604052508101906200016591906200027a565b600681905550600860009054906101000a900473ffffffffffffffffffffffffffffffffffffffff1673ffffffffffffffffffffffffffffffffffffffff1663035d9f2a60016040518263ffffffff1660e01b8152600401620001c99190620002bd565b600060405180830381600087803b158015620001e457600080fd5b505af1158015620001f9573d6000803e3d6000fd5b50505050505062000365565b600081519050620002168162000331565b92915050565b6000815190506200022d816200034b565b92915050565b600080604083850312156200024d576200024c6200032c565b5b60006200025d8582860162000205565b9250506020620002708582860162000205565b9150509250929050565b6000602082840312156200029357620002926200032c565b5b6000620002a3848285016200021c565b91505092915050565b620002b78162000318565b82525050565b6000602082019050620002d46000830184620002ac565b92915050565b6000620002e782620002ee565b9050919050565b600073ffffffffffffffffffffffffffffffffffffffff82169050919050565b6000819050919050565b600062000325826200030e565b9050919050565b600080fd5b6200033c81620002da565b81146200034857600080fd5b50565b62000356816200030e565b81146200036257600080fd5b50565b610dba80620003756000396000f3fe608060405234801561001057600080fd5b50600436106100a95760003560e01c80638ac85fbd116100715780638ac85fbd14610178578063a5e598fc146101a8578063cb31632e146101c6578063e56d8f79146101e4578063f6740fe514610202578063f99afc4a14610232576100a9565b80630289ed1b146100ae578063150b7a02146100de57806331320a751461010e57806333d4f2981461012a578063510fc61a1461015a575b600080fd5b6100c860048036038101906100c391906107dc565b610262565b6040516100d591906109fa565b60405180910390f35b6100f860048036038101906100f39190610754565b61027a565b6040516101059190610967565b60405180910390f35b61012860048036038101906101239190610849565b610388565b005b610144600480360381019061013f91906107dc565b610459565b60405161015191906109b8565b60405180910390f35b6101626104f9565b60405161016f919061099d565b60405180910390f35b610192600480360381019061018d9190610809565b61051f565b60405161019f91906109fa565b60405180910390f35b6101b0610544565b6040516101bd9190610982565b60405180910390f35b6101ce61056a565b6040516101db91906109fa565b60405180910390f35b6101ec610570565b6040516101f991906109fa565b60405180910390f35b61021c600480360381019061021791906107dc565b610576565b60405161022991906109fa565b60405180910390f35b61024c600480360381019061024791906107dc565b61058e565b604051610259919061094c565b60405180910390f35b60016020528060005260406000206000915090505481565b6000806000549050846001600083815260200190815260200160002081905550336002600083815260200190815260200160002060006101000a81548173ffffffffffffffffffffffffffffffffffffffff021916908373ffffffffffffffffffffffffffffffffffffffff1602179055506007546004600083815260200190815260200160002060008973ffffffffffffffffffffffffffffffffffffffff1673ffffffffffffffffffffffffffffffffffffffff16815260200190815260200160002081905550600754600360008381526020019081526020016000208190555060008081548092919061036f90610bdc565b919050555063150b7a0260e01b91505095945050505050565b6004600083815260200190815260200160002060003373ffffffffffffffffffffffffffffffffffffffff1673ffffffffffffffffffffffffffffffffffffffff1681526020019081526020016000205460036000848152602001908152602001600020541461042d576040517f08c379a0000000000000000000000000000000000000000000000000000000008152600401610424906109da565b60405180910390fd5b806005600084815260200190815260200160002090805190602001906104549291906105c1565b505050565b6005602052806000526040600020600091509050805461047890610b79565b80601f01602080910402602001604051908101604052809291908181526020018280546104a490610b79565b80156104f15780601f106104c6576101008083540402835291602001916104f1565b820191906000526020600020905b8154815290600101906020018083116104d457829003601f168201915b505050505081565b600860009054906101000a900473ffffffffffffffffffffffffffffffffffffffff1681565b6004602052816000526040600020602052806000526040600020600091509150505481565b600960009054906101000a900473ffffffffffffffffffffffffffffffffffffffff1681565b60065481565b60005481565b60036020528060005260406000206000915090505481565b60026020528060005260406000206000915054906101000a900473ffffffffffffffffffffffffffffffffffffffff1681565b8280546105cd90610b79565b90600052602060002090601f0160209004810192826105ef5760008555610636565b82601f1061060857805160ff1916838001178555610636565b82800160010185558215610636579182015b8281111561063557825182559160200191906001019061061a565b5b5090506106439190610647565b5090565b5b80821115610660576000816000905550600101610648565b5090565b600061067761067284610a3a565b610a15565b90508281526020810184848401111561069357610692610cc1565b5b61069e848285610b37565b509392505050565b6000813590506106b581610d56565b92915050565b60008083601f8401126106d1576106d0610cb7565b5b8235905067ffffffffffffffff8111156106ee576106ed610cb2565b5b60208301915083600182028301111561070a57610709610cbc565b5b9250929050565b600082601f83011261072657610725610cb7565b5b8135610736848260208601610664565b91505092915050565b60008135905061074e81610d6d565b92915050565b6000806000806000608086880312156107705761076f610ccb565b5b600061077e888289016106a6565b955050602061078f888289016106a6565b94505060406107a08882890161073f565b935050606086013567ffffffffffffffff8111156107c1576107c0610cc6565b5b6107cd888289016106bb565b92509250509295509295909350565b6000602082840312156107f2576107f1610ccb565b5b60006108008482850161073f565b91505092915050565b600080604083850312156108205761081f610ccb565b5b600061082e8582860161073f565b925050602061083f858286016106a6565b9150509250929050565b600080604083850312156108605761085f610ccb565b5b600061086e8582860161073f565b925050602083013567ffffffffffffffff81111561088f5761088e610cc6565b5b61089b85828601610711565b9150509250929050565b6108ae81610a87565b82525050565b6108bd81610a99565b82525050565b6108cc81610aef565b82525050565b6108db81610b01565b82525050565b60006108ec82610a6b565b6108f68185610a76565b9350610906818560208601610b46565b61090f81610cd0565b840191505092915050565b6000610927604983610a76565b915061093282610ce1565b606082019050919050565b61094681610ae5565b82525050565b600060208201905061096160008301846108a5565b92915050565b600060208201905061097c60008301846108b4565b92915050565b600060208201905061099760008301846108c3565b92915050565b60006020820190506109b260008301846108d2565b92915050565b600060208201905081810360008301526109d281846108e1565b905092915050565b600060208201905081810360008301526109f38161091a565b9050919050565b6000602082019050610a0f600083018461093d565b92915050565b6000610a1f610a30565b9050610a2b8282610bab565b919050565b6000604051905090565b600067ffffffffffffffff821115610a5557610a54610c83565b5b610a5e82610cd0565b9050602081019050919050565b600081519050919050565b600082825260208201905092915050565b6000610a9282610ac5565b9050919050565b60007fffffffff0000000000000000000000000000000000000000000000000000000082169050919050565b600073ffffffffffffffffffffffffffffffffffffffff82169050919050565b6000819050919050565b6000610afa82610b13565b9050919050565b6000610b0c82610b13565b9050919050565b6000610b1e82610b25565b9050919050565b6000610b3082610ac5565b9050919050565b82818337600083830152505050565b60005b83811015610b64578082015181840152602081019050610b49565b83811115610b73576000848401525b50505050565b60006002820490506001821680610b9157607f821691505b60208210811415610ba557610ba4610c54565b5b50919050565b610bb482610cd0565b810181811067ffffffffffffffff82111715610bd357610bd2610c83565b5b80604052505050565b6000610be782610ae5565b91507fffffffffffffffffffffffffffffffffffffffffffffffffffffffffffffffff821415610c1a57610c19610c25565b5b600182019050919050565b7f4e487b7100000000000000000000000000000000000000000000000000000000600052601160045260246000fd5b7f4e487b7100000000000000000000000000000000000000000000000000000000600052602260045260246000fd5b7f4e487b7100000000000000000000000000000000000000000000000000000000600052604160045260246000fd5b600080fd5b600080fd5b600080fd5b600080fd5b600080fd5b600080fd5b6000601f19601f8301169050919050565b7f6775696c645f73686172653a20546f20736574206e616d65206f66207468652060008201527f6775696c6420796f75206861766520746f20686176652031303025206f66206960208201527f7473207368617265730000000000000000000000000000000000000000000000604082015250565b610d5f81610a87565b8114610d6a57600080fd5b50565b610d7681610ae5565b8114610d8157600080fd5b5056fea264697066735822122026be5fcb6a8cd80d388fd6b937a5df161b2eb8f4c79d37e0e12bf7398c41556564736f6c63430008070033",
  "immutableReferences": {},
  "source": "pragma solidity 0.8.7;\n\nimport \"./ERC721.sol\";\n\ninterface rarity {\n    function summon(uint _class) external;\n    function next_summoner() external returns (uint);\n}\n\ninterface gold {\n    function transfer(uint from, uint to, uint amount) external returns (bool);\n    function transferFrom(uint executor, uint from, uint to, uint amount) external returns (bool);\n}\n\ncontract guild is IERC721Receiver {\n    uint256 public internal_erc721_id;\n    mapping(uint256 => uint256) public internal_id_to_erc721_id;\n    mapping(uint256 => address) public erc721_parent_contract;\n    mapping(uint256 => uint256) public guild_total_shares;\n    mapping(uint256 => mapping(address => uint256)) public guild_shares;\n    mapping(uint256 => string) public guild_names;\n    uint public guild_treasury_summoner;\n\n    uint256 initial_guild_shares = 1000;\n\n    rarity public rm;\n    gold public gd;\n\n    constructor(address rarity_address, address gold_address) {\n        rm = rarity(rarity_address);\n        gd = gold(gold_address);\n        guild_treasury_summoner = rm.next_summoner();\n        rm.summon(1);\n    }\n\n    function onERC721Received(\n        address operator,\n        address from,\n        uint256 tokenId,\n        bytes calldata data\n    ) external override returns (bytes4) {\n        uint256 new_guild_id = internal_erc721_id;\n        internal_id_to_erc721_id[new_guild_id] = tokenId;\n        erc721_parent_contract[new_guild_id] = msg.sender;\n        guild_shares[new_guild_id][operator] = initial_guild_shares;\n        guild_total_shares[new_guild_id] = initial_guild_shares;\n        internal_erc721_id++;\n        return 0x150b7a02;\n    }\n\n    function guild_name(uint256 guild_id, string memory name) external {\n        require(guild_total_shares[guild_id] == guild_shares[guild_id][msg.sender], \"guild_share: To set name of the guild you have to have 100% of its shares\");\n        guild_names[guild_id] = name;\n    }\n}",
  "sourcePath": "/Users/hristotodorov/Documents/Personal/Github/Rarity/contracts/guild.sol",
  "compiler": {
    "name": "solc",
    "version": "0.8.7+commit.e28d00a7.Emscripten.clang"
  },
  "schemaVersion": "3.4.3",
  "updatedAt": "2021-09-14T11:47:40.923Z",
  "networkType": "ethereum",
  "devdoc": {
    "kind": "dev",
    "methods": {},
    "version": 1
  },
  "userdoc": {
    "kind": "user",
    "methods": {},
    "version": 1
  }
}