{
  "contractName": "guildERC721",
  "abi": [
    {
      "anonymous": false,
      "inputs": [
        {
          "indexed": true,
          "internalType": "address",
          "name": "owner",
          "type": "address"
        },
        {
          "indexed": true,
          "internalType": "address",
          "name": "approved",
          "type": "address"
        },
        {
          "indexed": true,
          "internalType": "uint256",
          "name": "tokenId",
          "type": "uint256"
        }
      ],
      "name": "Approval",
      "type": "event"
    },
    {
      "anonymous": false,
      "inputs": [
        {
          "indexed": true,
          "internalType": "address",
          "name": "owner",
          "type": "address"
        },
        {
          "indexed": true,
          "internalType": "address",
          "name": "operator",
          "type": "address"
        },
        {
          "indexed": false,
          "internalType": "bool",
          "name": "approved",
          "type": "bool"
        }
      ],
      "name": "ApprovalForAll",
      "type": "event"
    },
    {
      "anonymous": false,
      "inputs": [
        {
          "indexed": true,
          "internalType": "address",
          "name": "from",
          "type": "address"
        },
        {
          "indexed": true,
          "internalType": "address",
          "name": "to",
          "type": "address"
        },
        {
          "indexed": true,
          "internalType": "uint256",
          "name": "tokenId",
          "type": "uint256"
        }
      ],
      "name": "Transfer",
      "type": "event"
    },
    {
      "inputs": [
        {
          "internalType": "address",
          "name": "to",
          "type": "address"
        },
        {
          "internalType": "uint256",
          "name": "tokenId",
          "type": "uint256"
        }
      ],
      "name": "approve",
      "outputs": [],
      "stateMutability": "nonpayable",
      "type": "function"
    },
    {
      "inputs": [
        {
          "internalType": "address",
          "name": "owner",
          "type": "address"
        }
      ],
      "name": "balanceOf",
      "outputs": [
        {
          "internalType": "uint256",
          "name": "",
          "type": "uint256"
        }
      ],
      "stateMutability": "view",
      "type": "function",
      "constant": true
    },
    {
      "inputs": [
        {
          "internalType": "uint256",
          "name": "tokenId",
          "type": "uint256"
        }
      ],
      "name": "getApproved",
      "outputs": [
        {
          "internalType": "address",
          "name": "",
          "type": "address"
        }
      ],
      "stateMutability": "view",
      "type": "function",
      "constant": true
    },
    {
      "inputs": [
        {
          "internalType": "address",
          "name": "owner",
          "type": "address"
        },
        {
          "internalType": "address",
          "name": "operator",
          "type": "address"
        }
      ],
      "name": "isApprovedForAll",
      "outputs": [
        {
          "internalType": "bool",
          "name": "",
          "type": "bool"
        }
      ],
      "stateMutability": "view",
      "type": "function",
      "constant": true
    },
    {
      "inputs": [
        {
          "internalType": "uint256",
          "name": "tokenId",
          "type": "uint256"
        }
      ],
      "name": "ownerOf",
      "outputs": [
        {
          "internalType": "address",
          "name": "",
          "type": "address"
        }
      ],
      "stateMutability": "view",
      "type": "function",
      "constant": true
    },
    {
      "inputs": [
        {
          "internalType": "address",
          "name": "from",
          "type": "address"
        },
        {
          "internalType": "address",
          "name": "to",
          "type": "address"
        },
        {
          "internalType": "uint256",
          "name": "tokenId",
          "type": "uint256"
        }
      ],
      "name": "safeTransferFrom",
      "outputs": [],
      "stateMutability": "nonpayable",
      "type": "function"
    },
    {
      "inputs": [
        {
          "internalType": "address",
          "name": "from",
          "type": "address"
        },
        {
          "internalType": "address",
          "name": "to",
          "type": "address"
        },
        {
          "internalType": "uint256",
          "name": "tokenId",
          "type": "uint256"
        },
        {
          "internalType": "bytes",
          "name": "_data",
          "type": "bytes"
        }
      ],
      "name": "safeTransferFrom",
      "outputs": [],
      "stateMutability": "nonpayable",
      "type": "function"
    },
    {
      "inputs": [
        {
          "internalType": "address",
          "name": "operator",
          "type": "address"
        },
        {
          "internalType": "bool",
          "name": "approved",
          "type": "bool"
        }
      ],
      "name": "setApprovalForAll",
      "outputs": [],
      "stateMutability": "nonpayable",
      "type": "function"
    },
    {
      "inputs": [
        {
          "internalType": "bytes4",
          "name": "interfaceId",
          "type": "bytes4"
        }
      ],
      "name": "supportsInterface",
      "outputs": [
        {
          "internalType": "bool",
          "name": "",
          "type": "bool"
        }
      ],
      "stateMutability": "view",
      "type": "function",
      "constant": true
    },
    {
      "inputs": [
        {
          "internalType": "uint256",
          "name": "index",
          "type": "uint256"
        }
      ],
      "name": "tokenByIndex",
      "outputs": [
        {
          "internalType": "uint256",
          "name": "",
          "type": "uint256"
        }
      ],
      "stateMutability": "view",
      "type": "function",
      "constant": true
    },
    {
      "inputs": [
        {
          "internalType": "address",
          "name": "owner",
          "type": "address"
        },
        {
          "internalType": "uint256",
          "name": "index",
          "type": "uint256"
        }
      ],
      "name": "tokenOfOwnerByIndex",
      "outputs": [
        {
          "internalType": "uint256",
          "name": "",
          "type": "uint256"
        }
      ],
      "stateMutability": "view",
      "type": "function",
      "constant": true
    },
    {
      "inputs": [],
      "name": "totalSupply",
      "outputs": [
        {
          "internalType": "uint256",
          "name": "",
          "type": "uint256"
        }
      ],
      "stateMutability": "view",
      "type": "function",
      "constant": true
    },
    {
      "inputs": [
        {
          "internalType": "address",
          "name": "from",
          "type": "address"
        },
        {
          "internalType": "address",
          "name": "to",
          "type": "address"
        },
        {
          "internalType": "uint256",
          "name": "tokenId",
          "type": "uint256"
        }
      ],
      "name": "transferFrom",
      "outputs": [],
      "stateMutability": "nonpayable",
      "type": "function"
    },
    {
      "inputs": [],
      "name": "name",
      "outputs": [
        {
          "internalType": "string",
          "name": "",
          "type": "string"
        }
      ],
      "stateMutability": "pure",
      "type": "function",
      "constant": true
    },
    {
      "inputs": [],
      "name": "symbol",
      "outputs": [
        {
          "internalType": "string",
          "name": "",
          "type": "string"
        }
      ],
      "stateMutability": "pure",
      "type": "function",
      "constant": true
    },
    {
      "inputs": [
        {
          "internalType": "uint256",
          "name": "tokenId",
          "type": "uint256"
        }
      ],
      "name": "tokenURI",
      "outputs": [
        {
          "internalType": "string",
          "name": "",
          "type": "string"
        }
      ],
      "stateMutability": "pure",
      "type": "function",
      "constant": true
    },
    {
      "inputs": [
        {
          "internalType": "address",
          "name": "to",
          "type": "address"
        }
      ],
      "name": "mint",
      "outputs": [],
      "stateMutability": "nonpayable",
      "type": "function"
    }
  ],
  "bytecode": "0x608060405234801561001057600080fd5b50612931806100206000396000f3fe608060405234801561001057600080fd5b506004361061010b5760003560e01c80634f6ccce7116100a257806395d89b411161007157806395d89b41146102dc578063a22cb465146102fa578063b88d4fde14610316578063c87b56dd14610332578063e985e9c5146103625761010b565b80634f6ccce7146102305780636352211e146102605780636a6278421461029057806370a08231146102ac5761010b565b806318160ddd116100de57806318160ddd146101aa57806323b872dd146101c85780632f745c59146101e457806342842e0e146102145761010b565b806301ffc9a71461011057806306fdde0314610140578063081812fc1461015e578063095ea7b31461018e575b600080fd5b61012a60048036038101906101259190611bbe565b610392565b6040516101379190611f58565b60405180910390f35b610148610474565b6040516101559190611f73565b60405180910390f35b61017860048036038101906101739190611c18565b6104b1565b6040516101859190611ef1565b60405180910390f35b6101a860048036038101906101a39190611b7e565b610536565b005b6101b2610640565b6040516101bf9190612175565b60405180910390f35b6101e260048036038101906101dd9190611a68565b61064d565b005b6101fe60048036038101906101f99190611b7e565b6106a6565b60405161020b9190612175565b60405180910390f35b61022e60048036038101906102299190611a68565b61074b565b005b61024a60048036038101906102459190611c18565b61076b565b6040516102579190612175565b60405180910390f35b61027a60048036038101906102759190611c18565b6107dc565b6040516102879190611ef1565b60405180910390f35b6102aa60048036038101906102a591906119fb565b61088d565b005b6102c660048036038101906102c191906119fb565b6108a7565b6040516102d39190612175565b60405180910390f35b6102e461095f565b6040516102f19190611f73565b60405180910390f35b610314600480360381019061030f9190611b3e565b61099c565b005b610330600480360381019061032b9190611abb565b610b08565b005b61034c60048036038101906103479190611c18565b610b63565b6040516103599190611f73565b60405180910390f35b61037c60048036038101906103779190611a28565b610b7c565b6040516103899190611f58565b60405180910390f35b60007f80ac58cd000000000000000000000000000000000000000000000000000000007bffffffffffffffffffffffffffffffffffffffffffffffffffffffff1916827bffffffffffffffffffffffffffffffffffffffffffffffffffffffff1916148061045d57507f5b5e139f000000000000000000000000000000000000000000000000000000007bffffffffffffffffffffffffffffffffffffffffffffffffffffffff1916827bffffffffffffffffffffffffffffffffffffffffffffffffffffffff1916145b8061046d575061046c82610c10565b5b9050919050565b60606040518060400160405280600581526020017f4775696c64000000000000000000000000000000000000000000000000000000815250905090565b60006104bc82610c7a565b6104fb576040517f08c379a00000000000000000000000000000000000000000000000000000000081526004016104f2906120d5565b60405180910390fd5b6002600083815260200190815260200160002060009054906101000a900473ffffffffffffffffffffffffffffffffffffffff169050919050565b6000610541826107dc565b90508073ffffffffffffffffffffffffffffffffffffffff168373ffffffffffffffffffffffffffffffffffffffff1614156105b2576040517f08c379a00000000000000000000000000000000000000000000000000000000081526004016105a990612115565b60405180910390fd5b8073ffffffffffffffffffffffffffffffffffffffff163373ffffffffffffffffffffffffffffffffffffffff1614806105f257506105f18133610b7c565b5b610631576040517f08c379a000000000000000000000000000000000000000000000000000000000815260040161062890612055565b60405180910390fd5b61063b8383610ce5565b505050565b6000600680549050905090565b6106573382610d9e565b610696576040517f08c379a000000000000000000000000000000000000000000000000000000000815260040161068d90612135565b60405180910390fd5b6106a1838383610e7c565b505050565b60006106b1836108a7565b82106106f2576040517f08c379a00000000000000000000000000000000000000000000000000000000081526004016106e990611f95565b60405180910390fd5b600460008473ffffffffffffffffffffffffffffffffffffffff1673ffffffffffffffffffffffffffffffffffffffff168152602001908152602001600020600083815260200190815260200160002054905092915050565b61076683838360405180602001604052806000815250610b08565b505050565b6000610775610640565b82106107b6576040517f08c379a00000000000000000000000000000000000000000000000000000000081526004016107ad90612155565b60405180910390fd5b600682815481106107ca576107c96123ed565b5b90600052602060002001549050919050565b60008060008084815260200190815260200160002060009054906101000a900473ffffffffffffffffffffffffffffffffffffffff169050600073ffffffffffffffffffffffffffffffffffffffff168173ffffffffffffffffffffffffffffffffffffffff161415610884576040517f08c379a000000000000000000000000000000000000000000000000000000000815260040161087b90612095565b60405180910390fd5b80915050919050565b6000610897610640565b90506108a382826110d5565b5050565b60008073ffffffffffffffffffffffffffffffffffffffff168273ffffffffffffffffffffffffffffffffffffffff161415610918576040517f08c379a000000000000000000000000000000000000000000000000000000000815260040161090f90612075565b60405180910390fd5b600160008373ffffffffffffffffffffffffffffffffffffffff1673ffffffffffffffffffffffffffffffffffffffff168152602001908152602001600020549050919050565b60606040518060400160405280600381526020017f474c440000000000000000000000000000000000000000000000000000000000815250905090565b3373ffffffffffffffffffffffffffffffffffffffff168273ffffffffffffffffffffffffffffffffffffffff161415610a0b576040517f08c379a0000000000000000000000000000000000000000000000000000000008152600401610a0290612015565b60405180910390fd5b80600360003373ffffffffffffffffffffffffffffffffffffffff1673ffffffffffffffffffffffffffffffffffffffff16815260200190815260200160002060008473ffffffffffffffffffffffffffffffffffffffff1673ffffffffffffffffffffffffffffffffffffffff16815260200190815260200160002060006101000a81548160ff0219169083151502179055508173ffffffffffffffffffffffffffffffffffffffff163373ffffffffffffffffffffffffffffffffffffffff167f17307eab39ab6107e8899845ad3d59bd9653f200f220920489ca2b5937696c3183604051610afc9190611f58565b60405180910390a35050565b610b123383610d9e565b610b51576040517f08c379a0000000000000000000000000000000000000000000000000000000008152600401610b4890612135565b60405180910390fd5b610b5d848484846110f3565b50505050565b6060604051806020016040528060008152509050919050565b6000600360008473ffffffffffffffffffffffffffffffffffffffff1673ffffffffffffffffffffffffffffffffffffffff16815260200190815260200160002060008373ffffffffffffffffffffffffffffffffffffffff1673ffffffffffffffffffffffffffffffffffffffff16815260200190815260200160002060009054906101000a900460ff16905092915050565b60007f01ffc9a7000000000000000000000000000000000000000000000000000000007bffffffffffffffffffffffffffffffffffffffffffffffffffffffff1916827bffffffffffffffffffffffffffffffffffffffffffffffffffffffff1916149050919050565b60008073ffffffffffffffffffffffffffffffffffffffff1660008084815260200190815260200160002060009054906101000a900473ffffffffffffffffffffffffffffffffffffffff1673ffffffffffffffffffffffffffffffffffffffff1614159050919050565b816002600083815260200190815260200160002060006101000a81548173ffffffffffffffffffffffffffffffffffffffff021916908373ffffffffffffffffffffffffffffffffffffffff160217905550808273ffffffffffffffffffffffffffffffffffffffff16610d58836107dc565b73ffffffffffffffffffffffffffffffffffffffff167f8c5be1e5ebec7d5bd14f71427d1e84f3dd0314c0f7b2291e5b200ac8c7c3b92560405160405180910390a45050565b6000610da982610c7a565b610de8576040517f08c379a0000000000000000000000000000000000000000000000000000000008152600401610ddf90612035565b60405180910390fd5b6000610df3836107dc565b90508073ffffffffffffffffffffffffffffffffffffffff168473ffffffffffffffffffffffffffffffffffffffff161480610e6257508373ffffffffffffffffffffffffffffffffffffffff16610e4a846104b1565b73ffffffffffffffffffffffffffffffffffffffff16145b80610e735750610e728185610b7c565b5b91505092915050565b8273ffffffffffffffffffffffffffffffffffffffff16610e9c826107dc565b73ffffffffffffffffffffffffffffffffffffffff1614610ef2576040517f08c379a0000000000000000000000000000000000000000000000000000000008152600401610ee9906120f5565b60405180910390fd5b600073ffffffffffffffffffffffffffffffffffffffff168273ffffffffffffffffffffffffffffffffffffffff161415610f62576040517f08c379a0000000000000000000000000000000000000000000000000000000008152600401610f5990611ff5565b60405180910390fd5b610f6d83838361114f565b610f78600082610ce5565b60018060008573ffffffffffffffffffffffffffffffffffffffff1673ffffffffffffffffffffffffffffffffffffffff1681526020019081526020016000206000828254610fc79190612274565b9250508190555060018060008473ffffffffffffffffffffffffffffffffffffffff1673ffffffffffffffffffffffffffffffffffffffff168152602001908152602001600020600082825461101d919061221e565b925050819055508160008083815260200190815260200160002060006101000a81548173ffffffffffffffffffffffffffffffffffffffff021916908373ffffffffffffffffffffffffffffffffffffffff160217905550808273ffffffffffffffffffffffffffffffffffffffff168473ffffffffffffffffffffffffffffffffffffffff167fddf252ad1be2c89b69c2b068fc378daa952ba7f163c4a11628f55a4df523b3ef60405160405180910390a4505050565b6110ef828260405180602001604052806000815250611263565b5050565b6110fe848484610e7c565b61110a848484846112be565b611149576040517f08c379a000000000000000000000000000000000000000000000000000000000815260040161114090611fb5565b60405180910390fd5b50505050565b61115a838383611438565b600073ffffffffffffffffffffffffffffffffffffffff168373ffffffffffffffffffffffffffffffffffffffff16141561119d576111988161143d565b6111dc565b8173ffffffffffffffffffffffffffffffffffffffff168373ffffffffffffffffffffffffffffffffffffffff16146111db576111da8382611486565b5b5b600073ffffffffffffffffffffffffffffffffffffffff168273ffffffffffffffffffffffffffffffffffffffff16141561121f5761121a816115f3565b61125e565b8273ffffffffffffffffffffffffffffffffffffffff168273ffffffffffffffffffffffffffffffffffffffff161461125d5761125c82826116c4565b5b5b505050565b61126d8383611743565b61127a60008484846112be565b6112b9576040517f08c379a00000000000000000000000000000000000000000000000000000000081526004016112b090611fb5565b60405180910390fd5b505050565b60006112c98461190f565b1561142b578373ffffffffffffffffffffffffffffffffffffffff1663150b7a02338786866040518563ffffffff1660e01b815260040161130d9493929190611f0c565b602060405180830381600087803b15801561132757600080fd5b505af192505050801561135857506040513d601f19601f820116820180604052508101906113559190611beb565b60015b6113db573d8060008114611388576040519150601f19603f3d011682016040523d82523d6000602084013e61138d565b606091505b506000815114156113d3576040517f08c379a00000000000000000000000000000000000000000000000000000000081526004016113ca90611fb5565b60405180910390fd5b805181602001fd5b63150b7a0260e01b7bffffffffffffffffffffffffffffffffffffffffffffffffffffffff1916817bffffffffffffffffffffffffffffffffffffffffffffffffffffffff191614915050611430565b600190505b949350505050565b505050565b6006805490506007600083815260200190815260200160002081905550600681908060018154018082558091505060019003906000526020600020016000909190919091505550565b60006001611493846108a7565b61149d9190612274565b9050600060056000848152602001908152602001600020549050818114611582576000600460008673ffffffffffffffffffffffffffffffffffffffff1673ffffffffffffffffffffffffffffffffffffffff168152602001908152602001600020600084815260200190815260200160002054905080600460008773ffffffffffffffffffffffffffffffffffffffff1673ffffffffffffffffffffffffffffffffffffffff168152602001908152602001600020600084815260200190815260200160002081905550816005600083815260200190815260200160002081905550505b6005600084815260200190815260200160002060009055600460008573ffffffffffffffffffffffffffffffffffffffff1673ffffffffffffffffffffffffffffffffffffffff16815260200190815260200160002060008381526020019081526020016000206000905550505050565b600060016006805490506116079190612274565b9050600060076000848152602001908152602001600020549050600060068381548110611637576116366123ed565b5b906000526020600020015490508060068381548110611659576116586123ed565b5b9060005260206000200181905550816007600083815260200190815260200160002081905550600760008581526020019081526020016000206000905560068054806116a8576116a76123be565b5b6001900381819060005260206000200160009055905550505050565b60006116cf836108a7565b905081600460008573ffffffffffffffffffffffffffffffffffffffff1673ffffffffffffffffffffffffffffffffffffffff168152602001908152602001600020600083815260200190815260200160002081905550806005600084815260200190815260200160002081905550505050565b600073ffffffffffffffffffffffffffffffffffffffff168273ffffffffffffffffffffffffffffffffffffffff1614156117b3576040517f08c379a00000000000000000000000000000000000000000000000000000000081526004016117aa906120b5565b60405180910390fd5b6117bc81610c7a565b156117fc576040517f08c379a00000000000000000000000000000000000000000000000000000000081526004016117f390611fd5565b60405180910390fd5b6118086000838361114f565b60018060008473ffffffffffffffffffffffffffffffffffffffff1673ffffffffffffffffffffffffffffffffffffffff1681526020019081526020016000206000828254611857919061221e565b925050819055508160008083815260200190815260200160002060006101000a81548173ffffffffffffffffffffffffffffffffffffffff021916908373ffffffffffffffffffffffffffffffffffffffff160217905550808273ffffffffffffffffffffffffffffffffffffffff16600073ffffffffffffffffffffffffffffffffffffffff167fddf252ad1be2c89b69c2b068fc378daa952ba7f163c4a11628f55a4df523b3ef60405160405180910390a45050565b600080823b905060008111915050919050565b6000611935611930846121b5565b612190565b90508281526020810184848401111561195157611950612450565b5b61195c84828561231c565b509392505050565b6000813590506119738161289f565b92915050565b600081359050611988816128b6565b92915050565b60008135905061199d816128cd565b92915050565b6000815190506119b2816128cd565b92915050565b600082601f8301126119cd576119cc61244b565b5b81356119dd848260208601611922565b91505092915050565b6000813590506119f5816128e4565b92915050565b600060208284031215611a1157611a1061245a565b5b6000611a1f84828501611964565b91505092915050565b60008060408385031215611a3f57611a3e61245a565b5b6000611a4d85828601611964565b9250506020611a5e85828601611964565b9150509250929050565b600080600060608486031215611a8157611a8061245a565b5b6000611a8f86828701611964565b9350506020611aa086828701611964565b9250506040611ab1868287016119e6565b9150509250925092565b60008060008060808587031215611ad557611ad461245a565b5b6000611ae387828801611964565b9450506020611af487828801611964565b9350506040611b05878288016119e6565b925050606085013567ffffffffffffffff811115611b2657611b25612455565b5b611b32878288016119b8565b91505092959194509250565b60008060408385031215611b5557611b5461245a565b5b6000611b6385828601611964565b9250506020611b7485828601611979565b9150509250929050565b60008060408385031215611b9557611b9461245a565b5b6000611ba385828601611964565b9250506020611bb4858286016119e6565b9150509250929050565b600060208284031215611bd457611bd361245a565b5b6000611be28482850161198e565b91505092915050565b600060208284031215611c0157611c0061245a565b5b6000611c0f848285016119a3565b91505092915050565b600060208284031215611c2e57611c2d61245a565b5b6000611c3c848285016119e6565b91505092915050565b611c4e816122a8565b82525050565b611c5d816122ba565b82525050565b6000611c6e826121e6565b611c7881856121fc565b9350611c8881856020860161232b565b611c918161245f565b840191505092915050565b6000611ca7826121f1565b611cb1818561220d565b9350611cc181856020860161232b565b611cca8161245f565b840191505092915050565b6000611ce2602b8361220d565b9150611ced82612470565b604082019050919050565b6000611d0560328361220d565b9150611d10826124bf565b604082019050919050565b6000611d28601c8361220d565b9150611d338261250e565b602082019050919050565b6000611d4b60248361220d565b9150611d5682612537565b604082019050919050565b6000611d6e60198361220d565b9150611d7982612586565b602082019050919050565b6000611d91602c8361220d565b9150611d9c826125af565b604082019050919050565b6000611db460388361220d565b9150611dbf826125fe565b604082019050919050565b6000611dd7602a8361220d565b9150611de28261264d565b604082019050919050565b6000611dfa60298361220d565b9150611e058261269c565b604082019050919050565b6000611e1d60208361220d565b9150611e28826126eb565b602082019050919050565b6000611e40602c8361220d565b9150611e4b82612714565b604082019050919050565b6000611e6360298361220d565b9150611e6e82612763565b604082019050919050565b6000611e8660218361220d565b9150611e91826127b2565b604082019050919050565b6000611ea960318361220d565b9150611eb482612801565b604082019050919050565b6000611ecc602c8361220d565b9150611ed782612850565b604082019050919050565b611eeb81612312565b82525050565b6000602082019050611f066000830184611c45565b92915050565b6000608082019050611f216000830187611c45565b611f2e6020830186611c45565b611f3b6040830185611ee2565b8181036060830152611f4d8184611c63565b905095945050505050565b6000602082019050611f6d6000830184611c54565b92915050565b60006020820190508181036000830152611f8d8184611c9c565b905092915050565b60006020820190508181036000830152611fae81611cd5565b9050919050565b60006020820190508181036000830152611fce81611cf8565b9050919050565b60006020820190508181036000830152611fee81611d1b565b9050919050565b6000602082019050818103600083015261200e81611d3e565b9050919050565b6000602082019050818103600083015261202e81611d61565b9050919050565b6000602082019050818103600083015261204e81611d84565b9050919050565b6000602082019050818103600083015261206e81611da7565b9050919050565b6000602082019050818103600083015261208e81611dca565b9050919050565b600060208201905081810360008301526120ae81611ded565b9050919050565b600060208201905081810360008301526120ce81611e10565b9050919050565b600060208201905081810360008301526120ee81611e33565b9050919050565b6000602082019050818103600083015261210e81611e56565b9050919050565b6000602082019050818103600083015261212e81611e79565b9050919050565b6000602082019050818103600083015261214e81611e9c565b9050919050565b6000602082019050818103600083015261216e81611ebf565b9050919050565b600060208201905061218a6000830184611ee2565b92915050565b600061219a6121ab565b90506121a6828261235e565b919050565b6000604051905090565b600067ffffffffffffffff8211156121d0576121cf61241c565b5b6121d98261245f565b9050602081019050919050565b600081519050919050565b600081519050919050565b600082825260208201905092915050565b600082825260208201905092915050565b600061222982612312565b915061223483612312565b9250827fffffffffffffffffffffffffffffffffffffffffffffffffffffffffffffffff038211156122695761226861238f565b5b828201905092915050565b600061227f82612312565b915061228a83612312565b92508282101561229d5761229c61238f565b5b828203905092915050565b60006122b3826122f2565b9050919050565b60008115159050919050565b60007fffffffff0000000000000000000000000000000000000000000000000000000082169050919050565b600073ffffffffffffffffffffffffffffffffffffffff82169050919050565b6000819050919050565b82818337600083830152505050565b60005b8381101561234957808201518184015260208101905061232e565b83811115612358576000848401525b50505050565b6123678261245f565b810181811067ffffffffffffffff821117156123865761238561241c565b5b80604052505050565b7f4e487b7100000000000000000000000000000000000000000000000000000000600052601160045260246000fd5b7f4e487b7100000000000000000000000000000000000000000000000000000000600052603160045260246000fd5b7f4e487b7100000000000000000000000000000000000000000000000000000000600052603260045260246000fd5b7f4e487b7100000000000000000000000000000000000000000000000000000000600052604160045260246000fd5b600080fd5b600080fd5b600080fd5b600080fd5b6000601f19601f8301169050919050565b7f455243373231456e756d657261626c653a206f776e657220696e646578206f7560008201527f74206f6620626f756e6473000000000000000000000000000000000000000000602082015250565b7f4552433732313a207472616e7366657220746f206e6f6e20455243373231526560008201527f63656976657220696d706c656d656e7465720000000000000000000000000000602082015250565b7f4552433732313a20746f6b656e20616c7265616479206d696e74656400000000600082015250565b7f4552433732313a207472616e7366657220746f20746865207a65726f2061646460008201527f7265737300000000000000000000000000000000000000000000000000000000602082015250565b7f4552433732313a20617070726f766520746f2063616c6c657200000000000000600082015250565b7f4552433732313a206f70657261746f7220717565727920666f72206e6f6e657860008201527f697374656e7420746f6b656e0000000000000000000000000000000000000000602082015250565b7f4552433732313a20617070726f76652063616c6c6572206973206e6f74206f7760008201527f6e6572206e6f7220617070726f76656420666f7220616c6c0000000000000000602082015250565b7f4552433732313a2062616c616e636520717565727920666f7220746865207a6560008201527f726f206164647265737300000000000000000000000000000000000000000000602082015250565b7f4552433732313a206f776e657220717565727920666f72206e6f6e657869737460008201527f656e7420746f6b656e0000000000000000000000000000000000000000000000602082015250565b7f4552433732313a206d696e7420746f20746865207a65726f2061646472657373600082015250565b7f4552433732313a20617070726f76656420717565727920666f72206e6f6e657860008201527f697374656e7420746f6b656e0000000000000000000000000000000000000000602082015250565b7f4552433732313a207472616e73666572206f6620746f6b656e2074686174206960008201527f73206e6f74206f776e0000000000000000000000000000000000000000000000602082015250565b7f4552433732313a20617070726f76616c20746f2063757272656e74206f776e6560008201527f7200000000000000000000000000000000000000000000000000000000000000602082015250565b7f4552433732313a207472616e736665722063616c6c6572206973206e6f74206f60008201527f776e6572206e6f7220617070726f766564000000000000000000000000000000602082015250565b7f455243373231456e756d657261626c653a20676c6f62616c20696e646578206f60008201527f7574206f6620626f756e64730000000000000000000000000000000000000000602082015250565b6128a8816122a8565b81146128b357600080fd5b50565b6128bf816122ba565b81146128ca57600080fd5b50565b6128d6816122c6565b81146128e157600080fd5b50565b6128ed81612312565b81146128f857600080fd5b5056fea26469706673582212201e151303e41ec3fcbedbbcd0225f13e97322f02db188ad7dc2c1dc635044e3b264736f6c63430008070033",
  "immutableReferences": {},
  "source": "pragma solidity 0.8.7;\n\nimport \"./ERC721.sol\";\n\ninterface guild_share {\n\n}\n\ninterface rarity {\n    function summon(uint _class) external;\n}\n\ninterface gold {\n    function transfer(uint from, uint to, uint amount) external returns (bool);\n    function transferFrom(uint executor, uint from, uint to, uint amount) external returns (bool);\n}\n\ncontract guildERC721 is ERC721Enumerable, IERC721Metadata {\n    function name() override external pure returns (string memory) {\n        return \"Guild\";\n    }\n\n    function symbol() override external pure returns (string memory) {\n        return \"GLD\";\n    }\n\n    function tokenURI(uint256 tokenId) override external pure returns (string memory) {\n        return \"\";\n    }\n\n    function mint(address to) external {\n        uint256 next_token_id = totalSupply();\n        _safeMint(to, next_token_id);\n    }\n}",
  "sourcePath": "/Users/hristotodorov/Documents/Personal/Rarity/contracts/guildERC721.sol",
  "compiler": {
    "name": "solc",
    "version": "0.8.7+commit.e28d00a7.Emscripten.clang"
  },
  "schemaVersion": "3.4.3",
  "updatedAt": "2021-09-14T11:17:16.318Z",
  "networkType": "ethereum",
  "devdoc": {
    "kind": "dev",
    "methods": {},
    "version": 1
  },
  "userdoc": {
    "kind": "user",
    "methods": {},
    "version": 1
  }
}