{
  "contractName": "guild",
  "abi": [
    {
      "inputs": [
        {
          "internalType": "address",
          "name": "rarity_address",
          "type": "address"
        },
        {
          "internalType": "address",
          "name": "gold_address",
          "type": "address"
        }
      ],
      "stateMutability": "nonpayable",
      "type": "constructor"
    },
    {
      "inputs": [
        {
          "internalType": "uint256",
          "name": "",
          "type": "uint256"
        }
      ],
      "name": "erc721_parent_contract",
      "outputs": [
        {
          "internalType": "address",
          "name": "",
          "type": "address"
        }
      ],
      "stateMutability": "view",
      "type": "function",
      "constant": true
    },
    {
      "inputs": [
        {
          "internalType": "uint256",
          "name": "",
          "type": "uint256"
        }
      ],
      "name": "guild_names",
      "outputs": [
        {
          "internalType": "string",
          "name": "",
          "type": "string"
        }
      ],
      "stateMutability": "view",
      "type": "function",
      "constant": true
    },
    {
      "inputs": [
        {
          "internalType": "uint256",
          "name": "",
          "type": "uint256"
        },
        {
          "internalType": "address",
          "name": "",
          "type": "address"
        }
      ],
      "name": "guild_shares",
      "outputs": [
        {
          "internalType": "uint256",
          "name": "",
          "type": "uint256"
        }
      ],
      "stateMutability": "view",
      "type": "function",
      "constant": true
    },
    {
      "inputs": [
        {
          "internalType": "uint256",
          "name": "",
          "type": "uint256"
        }
      ],
      "name": "guild_total_shares",
      "outputs": [
        {
          "internalType": "uint256",
          "name": "",
          "type": "uint256"
        }
      ],
      "stateMutability": "view",
      "type": "function",
      "constant": true
    },
    {
      "inputs": [],
      "name": "guild_treasury_summoner",
      "outputs": [
        {
          "internalType": "uint256",
          "name": "",
          "type": "uint256"
        }
      ],
      "stateMutability": "view",
      "type": "function",
      "constant": true
    },
    {
      "inputs": [],
      "name": "internal_erc721_id",
      "outputs": [
        {
          "internalType": "uint256",
          "name": "",
          "type": "uint256"
        }
      ],
      "stateMutability": "view",
      "type": "function",
      "constant": true
    },
    {
      "inputs": [
        {
          "internalType": "uint256",
          "name": "",
          "type": "uint256"
        }
      ],
      "name": "internal_id_to_erc721_id",
      "outputs": [
        {
          "internalType": "uint256",
          "name": "",
          "type": "uint256"
        }
      ],
      "stateMutability": "view",
      "type": "function",
      "constant": true
    },
    {
      "inputs": [
        {
          "internalType": "address",
          "name": "operator",
          "type": "address"
        },
        {
          "internalType": "address",
          "name": "from",
          "type": "address"
        },
        {
          "internalType": "uint256",
          "name": "tokenId",
          "type": "uint256"
        },
        {
          "internalType": "bytes",
          "name": "data",
          "type": "bytes"
        }
      ],
      "name": "onERC721Received",
      "outputs": [
        {
          "internalType": "bytes4",
          "name": "",
          "type": "bytes4"
        }
      ],
      "stateMutability": "nonpayable",
      "type": "function"
    },
    {
      "inputs": [
        {
          "internalType": "uint256",
          "name": "guild_id",
          "type": "uint256"
        },
        {
          "internalType": "string",
          "name": "name",
          "type": "string"
        }
      ],
      "name": "guild_name",
      "outputs": [],
      "stateMutability": "nonpayable",
      "type": "function"
    }
  ],
  "bytecode": "0x60806040526103e86007553480156200001757600080fd5b5060405162000ff538038062000ff583398181016040528101906200003d919062000233565b81600860006101000a81548173ffffffffffffffffffffffffffffffffffffffff021916908373ffffffffffffffffffffffffffffffffffffffff16021790555080600960006101000a81548173ffffffffffffffffffffffffffffffffffffffff021916908373ffffffffffffffffffffffffffffffffffffffff160217905550600860009054906101000a900473ffffffffffffffffffffffffffffffffffffffff1673ffffffffffffffffffffffffffffffffffffffff166307b018ef6040518163ffffffff1660e01b8152600401602060405180830381600087803b1580156200012a57600080fd5b505af11580156200013f573d6000803e3d6000fd5b505050506040513d601f19601f820116820180604052508101906200016591906200027a565b600681905550600860009054906101000a900473ffffffffffffffffffffffffffffffffffffffff1673ffffffffffffffffffffffffffffffffffffffff1663035d9f2a60016040518263ffffffff1660e01b8152600401620001c99190620002bd565b600060405180830381600087803b158015620001e457600080fd5b505af1158015620001f9573d6000803e3d6000fd5b50505050505062000365565b600081519050620002168162000331565b92915050565b6000815190506200022d816200034b565b92915050565b600080604083850312156200024d576200024c6200032c565b5b60006200025d8582860162000205565b9250506020620002708582860162000205565b9150509250929050565b6000602082840312156200029357620002926200032c565b5b6000620002a3848285016200021c565b91505092915050565b620002b78162000318565b82525050565b6000602082019050620002d46000830184620002ac565b92915050565b6000620002e782620002ee565b9050919050565b600073ffffffffffffffffffffffffffffffffffffffff82169050919050565b6000819050919050565b600062000325826200030e565b9050919050565b600080fd5b6200033c81620002da565b81146200034857600080fd5b50565b62000356816200030e565b81146200036257600080fd5b50565b610c8080620003756000396000f3fe608060405234801561001057600080fd5b50600436106100935760003560e01c80638ac85fbd116100665780638ac85fbd14610144578063cb31632e14610174578063e56d8f7914610192578063f6740fe5146101b0578063f99afc4a146101e057610093565b80630289ed1b14610098578063150b7a02146100c857806331320a75146100f857806333d4f29814610114575b600080fd5b6100b260048036038101906100ad919061073e565b610210565b6040516100bf9190610908565b60405180910390f35b6100e260048036038101906100dd91906106b6565b610228565b6040516100ef91906108ab565b60405180910390f35b610112600480360381019061010d91906107ab565b610336565b005b61012e6004803603810190610129919061073e565b610407565b60405161013b91906108c6565b60405180910390f35b61015e6004803603810190610159919061076b565b6104a7565b60405161016b9190610908565b60405180910390f35b61017c6104cc565b6040516101899190610908565b60405180910390f35b61019a6104d2565b6040516101a79190610908565b60405180910390f35b6101ca60048036038101906101c5919061073e565b6104d8565b6040516101d79190610908565b60405180910390f35b6101fa60048036038101906101f5919061073e565b6104f0565b6040516102079190610890565b60405180910390f35b60016020528060005260406000206000915090505481565b6000806000549050846001600083815260200190815260200160002081905550336002600083815260200190815260200160002060006101000a81548173ffffffffffffffffffffffffffffffffffffffff021916908373ffffffffffffffffffffffffffffffffffffffff1602179055506007546004600083815260200190815260200160002060008973ffffffffffffffffffffffffffffffffffffffff1673ffffffffffffffffffffffffffffffffffffffff16815260200190815260200160002081905550600754600360008381526020019081526020016000208190555060008081548092919061031d90610aa2565b919050555063150b7a0260e01b91505095945050505050565b6004600083815260200190815260200160002060003373ffffffffffffffffffffffffffffffffffffffff1673ffffffffffffffffffffffffffffffffffffffff168152602001908152602001600020546003600084815260200190815260200160002054146103db576040517f08c379a00000000000000000000000000000000000000000000000000000000081526004016103d2906108e8565b60405180910390fd5b80600560008481526020019081526020016000209080519060200190610402929190610523565b505050565b6005602052806000526040600020600091509050805461042690610a3f565b80601f016020809104026020016040519081016040528092919081815260200182805461045290610a3f565b801561049f5780601f106104745761010080835404028352916020019161049f565b820191906000526020600020905b81548152906001019060200180831161048257829003601f168201915b505050505081565b6004602052816000526040600020602052806000526040600020600091509150505481565b60065481565b60005481565b60036020528060005260406000206000915090505481565b60026020528060005260406000206000915054906101000a900473ffffffffffffffffffffffffffffffffffffffff1681565b82805461052f90610a3f565b90600052602060002090601f0160209004810192826105515760008555610598565b82601f1061056a57805160ff1916838001178555610598565b82800160010185558215610598579182015b8281111561059757825182559160200191906001019061057c565b5b5090506105a591906105a9565b5090565b5b808211156105c25760008160009055506001016105aa565b5090565b60006105d96105d484610948565b610923565b9050828152602081018484840111156105f5576105f4610b87565b5b6106008482856109fd565b509392505050565b60008135905061061781610c1c565b92915050565b60008083601f84011261063357610632610b7d565b5b8235905067ffffffffffffffff8111156106505761064f610b78565b5b60208301915083600182028301111561066c5761066b610b82565b5b9250929050565b600082601f83011261068857610687610b7d565b5b81356106988482602086016105c6565b91505092915050565b6000813590506106b081610c33565b92915050565b6000806000806000608086880312156106d2576106d1610b91565b5b60006106e088828901610608565b95505060206106f188828901610608565b9450506040610702888289016106a1565b935050606086013567ffffffffffffffff81111561072357610722610b8c565b5b61072f8882890161061d565b92509250509295509295909350565b60006020828403121561075457610753610b91565b5b6000610762848285016106a1565b91505092915050565b6000806040838503121561078257610781610b91565b5b6000610790858286016106a1565b92505060206107a185828601610608565b9150509250929050565b600080604083850312156107c2576107c1610b91565b5b60006107d0858286016106a1565b925050602083013567ffffffffffffffff8111156107f1576107f0610b8c565b5b6107fd85828601610673565b9150509250929050565b61081081610995565b82525050565b61081f816109a7565b82525050565b600061083082610979565b61083a8185610984565b935061084a818560208601610a0c565b61085381610b96565b840191505092915050565b600061086b604983610984565b915061087682610ba7565b606082019050919050565b61088a816109f3565b82525050565b60006020820190506108a56000830184610807565b92915050565b60006020820190506108c06000830184610816565b92915050565b600060208201905081810360008301526108e08184610825565b905092915050565b600060208201905081810360008301526109018161085e565b9050919050565b600060208201905061091d6000830184610881565b92915050565b600061092d61093e565b90506109398282610a71565b919050565b6000604051905090565b600067ffffffffffffffff82111561096357610962610b49565b5b61096c82610b96565b9050602081019050919050565b600081519050919050565b600082825260208201905092915050565b60006109a0826109d3565b9050919050565b60007fffffffff0000000000000000000000000000000000000000000000000000000082169050919050565b600073ffffffffffffffffffffffffffffffffffffffff82169050919050565b6000819050919050565b82818337600083830152505050565b60005b83811015610a2a578082015181840152602081019050610a0f565b83811115610a39576000848401525b50505050565b60006002820490506001821680610a5757607f821691505b60208210811415610a6b57610a6a610b1a565b5b50919050565b610a7a82610b96565b810181811067ffffffffffffffff82111715610a9957610a98610b49565b5b80604052505050565b6000610aad826109f3565b91507fffffffffffffffffffffffffffffffffffffffffffffffffffffffffffffffff821415610ae057610adf610aeb565b5b600182019050919050565b7f4e487b7100000000000000000000000000000000000000000000000000000000600052601160045260246000fd5b7f4e487b7100000000000000000000000000000000000000000000000000000000600052602260045260246000fd5b7f4e487b7100000000000000000000000000000000000000000000000000000000600052604160045260246000fd5b600080fd5b600080fd5b600080fd5b600080fd5b600080fd5b600080fd5b6000601f19601f8301169050919050565b7f6775696c645f73686172653a20546f20736574206e616d65206f66207468652060008201527f6775696c6420796f75206861766520746f20686176652031303025206f66206960208201527f7473207368617265730000000000000000000000000000000000000000000000604082015250565b610c2581610995565b8114610c3057600080fd5b50565b610c3c816109f3565b8114610c4757600080fd5b5056fea264697066735822122056e241955d128f9b9b07bd772134f87357817f933f3a0e4469295bc43dece3ec64736f6c63430008070033",
  "immutableReferences": {},
  "source": "pragma solidity 0.8.7;\n\nimport \"./ERC721.sol\";\n\ninterface rarity {\n    function summon(uint _class) external;\n    function next_summoner() external returns (uint);\n}\n\ninterface gold {\n    function transfer(uint from, uint to, uint amount) external returns (bool);\n    function transferFrom(uint executor, uint from, uint to, uint amount) external returns (bool);\n}\n\ncontract guild is IERC721Receiver {\n    uint256 public internal_erc721_id;\n    mapping(uint256 => uint256) public internal_id_to_erc721_id;\n    mapping(uint256 => address) public erc721_parent_contract;\n    mapping(uint256 => uint256) public guild_total_shares;\n    mapping(uint256 => mapping(address => uint256)) public guild_shares;\n    mapping(uint256 => string) public guild_names;\n    uint public guild_treasury_summoner;\n\n    uint256 initial_guild_shares = 1000;\n\n    rarity private rm;\n    gold private gd;\n\n    constructor(address rarity_address, address gold_address) {\n        rm = rarity(rarity_address);\n        gd = gold(gold_address);\n        guild_treasury_summoner = rm.next_summoner();\n        rm.summon(1);\n    }\n\n    function onERC721Received(\n        address operator,\n        address from,\n        uint256 tokenId,\n        bytes calldata data\n    ) external override returns (bytes4) {\n        uint256 new_guild_id = internal_erc721_id;\n        internal_id_to_erc721_id[new_guild_id] = tokenId;\n        erc721_parent_contract[new_guild_id] = msg.sender;\n        guild_shares[new_guild_id][operator] = initial_guild_shares;\n        guild_total_shares[new_guild_id] = initial_guild_shares;\n        internal_erc721_id++;\n        return 0x150b7a02;\n    }\n\n    function guild_name(uint256 guild_id, string memory name) external {\n        require(guild_total_shares[guild_id] == guild_shares[guild_id][msg.sender], \"guild_share: To set name of the guild you have to have 100% of its shares\");\n        guild_names[guild_id] = name;\n    }\n}",
  "sourcePath": "/Users/hristotodorov/Documents/Personal/Rarity/contracts/guild.sol",
  "compiler": {
    "name": "solc",
    "version": "0.8.7+commit.e28d00a7.Emscripten.clang"
  },
  "schemaVersion": "3.4.3",
  "updatedAt": "2021-09-14T11:17:16.336Z",
  "networkType": "ethereum",
  "devdoc": {
    "kind": "dev",
    "methods": {},
    "version": 1
  },
  "userdoc": {
    "kind": "user",
    "methods": {},
    "version": 1
  }
}