{
  "contractName": "rarity_gold",
  "abi": [
    {
      "inputs": [
        {
          "internalType": "address",
          "name": "rarity_address",
          "type": "address"
        }
      ],
      "stateMutability": "nonpayable",
      "type": "constructor"
    },
    {
      "anonymous": false,
      "inputs": [
        {
          "indexed": true,
          "internalType": "uint256",
          "name": "from",
          "type": "uint256"
        },
        {
          "indexed": true,
          "internalType": "uint256",
          "name": "to",
          "type": "uint256"
        },
        {
          "indexed": false,
          "internalType": "uint256",
          "name": "amount",
          "type": "uint256"
        }
      ],
      "name": "Approval",
      "type": "event"
    },
    {
      "anonymous": false,
      "inputs": [
        {
          "indexed": true,
          "internalType": "uint256",
          "name": "from",
          "type": "uint256"
        },
        {
          "indexed": true,
          "internalType": "uint256",
          "name": "to",
          "type": "uint256"
        },
        {
          "indexed": false,
          "internalType": "uint256",
          "name": "amount",
          "type": "uint256"
        }
      ],
      "name": "Transfer",
      "type": "event"
    },
    {
      "inputs": [
        {
          "internalType": "uint256",
          "name": "",
          "type": "uint256"
        },
        {
          "internalType": "uint256",
          "name": "",
          "type": "uint256"
        }
      ],
      "name": "allowance",
      "outputs": [
        {
          "internalType": "uint256",
          "name": "",
          "type": "uint256"
        }
      ],
      "stateMutability": "view",
      "type": "function",
      "constant": true
    },
    {
      "inputs": [
        {
          "internalType": "uint256",
          "name": "",
          "type": "uint256"
        }
      ],
      "name": "balanceOf",
      "outputs": [
        {
          "internalType": "uint256",
          "name": "",
          "type": "uint256"
        }
      ],
      "stateMutability": "view",
      "type": "function",
      "constant": true
    },
    {
      "inputs": [
        {
          "internalType": "uint256",
          "name": "",
          "type": "uint256"
        }
      ],
      "name": "claimed",
      "outputs": [
        {
          "internalType": "uint256",
          "name": "",
          "type": "uint256"
        }
      ],
      "stateMutability": "view",
      "type": "function",
      "constant": true
    },
    {
      "inputs": [],
      "name": "decimals",
      "outputs": [
        {
          "internalType": "uint8",
          "name": "",
          "type": "uint8"
        }
      ],
      "stateMutability": "view",
      "type": "function",
      "constant": true
    },
    {
      "inputs": [],
      "name": "name",
      "outputs": [
        {
          "internalType": "string",
          "name": "",
          "type": "string"
        }
      ],
      "stateMutability": "view",
      "type": "function",
      "constant": true
    },
    {
      "inputs": [],
      "name": "symbol",
      "outputs": [
        {
          "internalType": "string",
          "name": "",
          "type": "string"
        }
      ],
      "stateMutability": "view",
      "type": "function",
      "constant": true
    },
    {
      "inputs": [],
      "name": "totalSupply",
      "outputs": [
        {
          "internalType": "uint256",
          "name": "",
          "type": "uint256"
        }
      ],
      "stateMutability": "view",
      "type": "function",
      "constant": true
    },
    {
      "inputs": [
        {
          "internalType": "uint256",
          "name": "level",
          "type": "uint256"
        }
      ],
      "name": "wealth_by_level",
      "outputs": [
        {
          "internalType": "uint256",
          "name": "wealth",
          "type": "uint256"
        }
      ],
      "stateMutability": "pure",
      "type": "function",
      "constant": true
    },
    {
      "inputs": [
        {
          "internalType": "uint256",
          "name": "summoner",
          "type": "uint256"
        }
      ],
      "name": "claimable",
      "outputs": [
        {
          "internalType": "uint256",
          "name": "amount",
          "type": "uint256"
        }
      ],
      "stateMutability": "view",
      "type": "function",
      "constant": true
    },
    {
      "inputs": [
        {
          "internalType": "uint256",
          "name": "summoner",
          "type": "uint256"
        }
      ],
      "name": "claim",
      "outputs": [],
      "stateMutability": "nonpayable",
      "type": "function"
    },
    {
      "inputs": [
        {
          "internalType": "uint256",
          "name": "from",
          "type": "uint256"
        },
        {
          "internalType": "uint256",
          "name": "spender",
          "type": "uint256"
        },
        {
          "internalType": "uint256",
          "name": "amount",
          "type": "uint256"
        }
      ],
      "name": "approve",
      "outputs": [
        {
          "internalType": "bool",
          "name": "",
          "type": "bool"
        }
      ],
      "stateMutability": "nonpayable",
      "type": "function"
    },
    {
      "inputs": [
        {
          "internalType": "uint256",
          "name": "from",
          "type": "uint256"
        },
        {
          "internalType": "uint256",
          "name": "to",
          "type": "uint256"
        },
        {
          "internalType": "uint256",
          "name": "amount",
          "type": "uint256"
        }
      ],
      "name": "transfer",
      "outputs": [
        {
          "internalType": "bool",
          "name": "",
          "type": "bool"
        }
      ],
      "stateMutability": "nonpayable",
      "type": "function"
    },
    {
      "inputs": [
        {
          "internalType": "uint256",
          "name": "executor",
          "type": "uint256"
        },
        {
          "internalType": "uint256",
          "name": "from",
          "type": "uint256"
        },
        {
          "internalType": "uint256",
          "name": "to",
          "type": "uint256"
        },
        {
          "internalType": "uint256",
          "name": "amount",
          "type": "uint256"
        }
      ],
      "name": "transferFrom",
      "outputs": [
        {
          "internalType": "bool",
          "name": "",
          "type": "bool"
        }
      ],
      "stateMutability": "nonpayable",
      "type": "function"
    }
  ],
  "bytecode": "0x6080604052600080553480156200001557600080fd5b50604051620011233803806200112383398181016040528101906200003b91906200009a565b80600160006101000a81548173ffffffffffffffffffffffffffffffffffffffff021916908373ffffffffffffffffffffffffffffffffffffffff160217905550506200011f565b600081519050620000948162000105565b92915050565b600060208284031215620000b357620000b262000100565b5b6000620000c38482850162000083565b91505092915050565b6000620000d982620000e0565b9050919050565b600073ffffffffffffffffffffffffffffffffffffffff82169050919050565b600080fd5b6200011081620000cc565b81146200011c57600080fd5b50565b610ff4806200012f6000396000f3fe608060405234801561001057600080fd5b50600436106100cf5760003560e01c806395d89b411161008c578063b866c8a411610066578063b866c8a414610228578063cca16fa814610258578063d1d58b2514610288578063dbe7e3bd146102b8576100cf565b806395d89b41146101aa5780639cc7f708146101c8578063b373f4a3146101f8576100cf565b806306fdde03146100d457806318160ddd146100f2578063313ce56714610110578063379607f51461012e5780638856f7791461014a57806390dd26271461017a575b600080fd5b6100dc6102e8565b6040516100e99190610d22565b60405180910390f35b6100fa610321565b6040516101079190610d44565b60405180910390f35b610118610327565b6040516101259190610d5f565b60405180910390f35b61014860048036038101906101439190610b4d565b61032c565b005b610164600480360381019061015f9190610c3a565b610461565b6040516101719190610d07565b60405180910390f35b610194600480360381019061018f9190610be7565b610565565b6040516101a19190610d07565b60405180910390f35b6101b261058f565b6040516101bf9190610d22565b60405180910390f35b6101e260048036038101906101dd9190610b4d565b6105c8565b6040516101ef9190610d44565b60405180910390f35b610212600480360381019061020d9190610b4d565b6105e0565b60405161021f9190610d44565b60405180910390f35b610242600480360381019061023d9190610be7565b61062b565b60405161024f9190610d07565b60405180910390f35b610272600480360381019061026d9190610ba7565b6106ac565b60405161027f9190610d44565b60405180910390f35b6102a2600480360381019061029d9190610b4d565b6106d1565b6040516102af9190610d44565b60405180910390f35b6102d260048036038101906102cd9190610b4d565b6107f6565b6040516102df9190610d44565b60405180910390f35b6040518060400160405280600b81526020017f52617269747920476f6c6400000000000000000000000000000000000000000081525081565b60005481565b601281565b6103358161080e565b61033e57600080fd5b6000600160009054906101000a900473ffffffffffffffffffffffffffffffffffffffff1673ffffffffffffffffffffffffffffffffffffffff166305c58df2836040518263ffffffff1660e01b815260040161039b9190610d44565b60206040518083038186803b1580156103b357600080fd5b505afa1580156103c7573d6000803e3d6000fd5b505050506040513d601f19601f820116820180604052508101906103eb9190610b7a565b905060006001600460008581526020019081526020016000205461040f9190610d96565b905060008190505b828111610443576104308461042b836105e0565b6109d0565b808061043b90610f02565b915050610417565b50816004600085815260200190815260200160002081905550505050565b600061046c8561080e565b61047557600080fd5b600085905060006002600087815260200190815260200160002060008381526020019081526020016000205490508582141580156104d357507fffffffffffffffffffffffffffffffffffffffffffffffffffffffffffffffff8114155b1561054c57600084826104e69190610e46565b9050806002600089815260200190815260200160002060008581526020019081526020016000208190555082877f08aaf4f7dd1adfa5bfe7067dea5b4ebd7e119d43257438a9189f37d7044eb09a836040516105429190610d44565b60405180910390a3505b610557868686610a4f565b600192505050949350505050565b60006105708461080e565b61057957600080fd5b610584848484610a4f565b600190509392505050565b6040518060400160405280600481526020017f676f6c640000000000000000000000000000000000000000000000000000000081525081565b60036020528060005260406000206000915090505481565b600080600190505b8281101561062557683635c9adc5dea00000816106059190610dec565b826106109190610d96565b9150808061061d90610f02565b9150506105e8565b50919050565b60006106368461080e565b61063f57600080fd5b816002600086815260200190815260200160002060008581526020019081526020016000208190555082847f08aaf4f7dd1adfa5bfe7067dea5b4ebd7e119d43257438a9189f37d7044eb09a846040516106999190610d44565b60405180910390a3600190509392505050565b6002602052816000526040600020602052806000526040600020600091509150505481565b60006106dc8261080e565b6106e557600080fd5b6000600160009054906101000a900473ffffffffffffffffffffffffffffffffffffffff1673ffffffffffffffffffffffffffffffffffffffff166305c58df2846040518263ffffffff1660e01b81526004016107429190610d44565b60206040518083038186803b15801561075a57600080fd5b505afa15801561076e573d6000803e3d6000fd5b505050506040513d601f19601f820116820180604052508101906107929190610b7a565b90506000600160046000868152602001908152602001600020546107b69190610d96565b905060008190505b8281116107ee576107ce816105e0565b846107d99190610d96565b935080806107e690610f02565b9150506107be565b505050919050565b60046020528060005260406000206000915090505481565b60003373ffffffffffffffffffffffffffffffffffffffff16600160009054906101000a900473ffffffffffffffffffffffffffffffffffffffff1673ffffffffffffffffffffffffffffffffffffffff1663081812fc846040518263ffffffff1660e01b81526004016108829190610d44565b60206040518083038186803b15801561089a57600080fd5b505afa1580156108ae573d6000803e3d6000fd5b505050506040513d601f19601f820116820180604052508101906108d29190610b20565b73ffffffffffffffffffffffffffffffffffffffff1614806109c957503373ffffffffffffffffffffffffffffffffffffffff16600160009054906101000a900473ffffffffffffffffffffffffffffffffffffffff1673ffffffffffffffffffffffffffffffffffffffff16636352211e846040518263ffffffff1660e01b81526004016109619190610d44565b60206040518083038186803b15801561097957600080fd5b505afa15801561098d573d6000803e3d6000fd5b505050506040513d601f19601f820116820180604052508101906109b19190610b20565b73ffffffffffffffffffffffffffffffffffffffff16145b9050919050565b806000808282546109e19190610d96565b9250508190555080600360008481526020019081526020016000206000828254610a0b9190610d96565b9250508190555081827faf6151f5085accf2d57e1e7bf7601d3b3982e0de7e9a90f032f8554de9c104f683604051610a439190610d44565b60405180910390a35050565b80600360008581526020019081526020016000206000828254610a729190610e46565b9250508190555080600360008481526020019081526020016000206000828254610a9c9190610d96565b9250508190555081837faf6151f5085accf2d57e1e7bf7601d3b3982e0de7e9a90f032f8554de9c104f683604051610ad49190610d44565b60405180910390a3505050565b600081519050610af081610f90565b92915050565b600081359050610b0581610fa7565b92915050565b600081519050610b1a81610fa7565b92915050565b600060208284031215610b3657610b35610f7a565b5b6000610b4484828501610ae1565b91505092915050565b600060208284031215610b6357610b62610f7a565b5b6000610b7184828501610af6565b91505092915050565b600060208284031215610b9057610b8f610f7a565b5b6000610b9e84828501610b0b565b91505092915050565b60008060408385031215610bbe57610bbd610f7a565b5b6000610bcc85828601610af6565b9250506020610bdd85828601610af6565b9150509250929050565b600080600060608486031215610c0057610bff610f7a565b5b6000610c0e86828701610af6565b9350506020610c1f86828701610af6565b9250506040610c3086828701610af6565b9150509250925092565b60008060008060808587031215610c5457610c53610f7a565b5b6000610c6287828801610af6565b9450506020610c7387828801610af6565b9350506040610c8487828801610af6565b9250506060610c9587828801610af6565b91505092959194509250565b610caa81610e8c565b82525050565b6000610cbb82610d7a565b610cc58185610d85565b9350610cd5818560208601610ecf565b610cde81610f7f565b840191505092915050565b610cf281610eb8565b82525050565b610d0181610ec2565b82525050565b6000602082019050610d1c6000830184610ca1565b92915050565b60006020820190508181036000830152610d3c8184610cb0565b905092915050565b6000602082019050610d596000830184610ce9565b92915050565b6000602082019050610d746000830184610cf8565b92915050565b600081519050919050565b600082825260208201905092915050565b6000610da182610eb8565b9150610dac83610eb8565b9250827fffffffffffffffffffffffffffffffffffffffffffffffffffffffffffffffff03821115610de157610de0610f4b565b5b828201905092915050565b6000610df782610eb8565b9150610e0283610eb8565b9250817fffffffffffffffffffffffffffffffffffffffffffffffffffffffffffffffff0483118215151615610e3b57610e3a610f4b565b5b828202905092915050565b6000610e5182610eb8565b9150610e5c83610eb8565b925082821015610e6f57610e6e610f4b565b5b828203905092915050565b6000610e8582610e98565b9050919050565b60008115159050919050565b600073ffffffffffffffffffffffffffffffffffffffff82169050919050565b6000819050919050565b600060ff82169050919050565b60005b83811015610eed578082015181840152602081019050610ed2565b83811115610efc576000848401525b50505050565b6000610f0d82610eb8565b91507fffffffffffffffffffffffffffffffffffffffffffffffffffffffffffffffff821415610f4057610f3f610f4b565b5b600182019050919050565b7f4e487b7100000000000000000000000000000000000000000000000000000000600052601160045260246000fd5b600080fd5b6000601f19601f8301169050919050565b610f9981610e7a565b8114610fa457600080fd5b50565b610fb081610eb8565b8114610fbb57600080fd5b5056fea2646970667358221220e5382a86197488e8c691783b27ccb0b90fb6df7d49ae2bf61aacc64732cfb10b64736f6c63430008070033",
  "immutableReferences": {},
  "source": "/**\n *Submitted for verification at FtmScan.com on 2021-09-06\n*/\n\n// SPDX-License-Identifier: MIT\npragma solidity 0.8.7;\n\ninterface rarity {\n    function level(uint) external view returns (uint);\n    function getApproved(uint) external view returns (address);\n    function ownerOf(uint) external view returns (address);\n}\n\ncontract rarity_gold {\n    string public constant name = \"Rarity Gold\";\n    string public constant symbol = \"gold\";\n    uint8 public constant decimals = 18;\n\n    uint public totalSupply = 0;\n    \n    rarity private rm;\n\n    constructor(address rarity_address) {\n        rm = rarity(rarity_address);\n    }\n\n    mapping(uint => mapping (uint => uint)) public allowance;\n    mapping(uint => uint) public balanceOf;\n    \n    mapping(uint => uint) public claimed;\n\n    event Transfer(uint indexed from, uint indexed to, uint amount);\n    event Approval(uint indexed from, uint indexed to, uint amount);\n\n    function wealth_by_level(uint level) public pure returns (uint wealth) {\n        for (uint i = 1; i < level; i++) {\n            wealth += i * 1000e18;\n        }\n    }\n\n    function _isApprovedOrOwner(uint _summoner) internal view returns (bool) {\n        return rm.getApproved(_summoner) == msg.sender || rm.ownerOf(_summoner) == msg.sender;\n    }\n    \n    \n    function claimable(uint summoner) external view returns (uint amount) {\n        require(_isApprovedOrOwner(summoner));\n        uint _current_level = rm.level(summoner);\n        uint _claimed_for = claimed[summoner]+1;\n        for (uint i = _claimed_for; i <= _current_level; i++) {\n            amount += wealth_by_level(i);\n        }\n    }\n    \n    function claim(uint summoner) external {\n        require(_isApprovedOrOwner(summoner));\n        uint _current_level = rm.level(summoner);\n        uint _claimed_for = claimed[summoner]+1;\n        for (uint i = _claimed_for; i <= _current_level; i++) {\n            _mint(summoner, wealth_by_level(i));\n        }\n        claimed[summoner] = _current_level;\n    }\n\n    function _mint(uint dst, uint amount) internal {\n        totalSupply += amount;\n        balanceOf[dst] += amount;\n        emit Transfer(dst, dst, amount);\n    }\n\n    function approve(uint from, uint spender, uint amount) external returns (bool) {\n        require(_isApprovedOrOwner(from));\n        allowance[from][spender] = amount;\n\n        emit Approval(from, spender, amount);\n        return true;\n    }\n\n    function transfer(uint from, uint to, uint amount) external returns (bool) {\n        require(_isApprovedOrOwner(from));\n        _transferTokens(from, to, amount);\n        return true;\n    }\n\n    function transferFrom(uint executor, uint from, uint to, uint amount) external returns (bool) {\n        require(_isApprovedOrOwner(executor));\n        uint spender = executor;\n        uint spenderAllowance = allowance[from][spender];\n\n        if (spender != from && spenderAllowance != type(uint).max) {\n            uint newAllowance = spenderAllowance - amount;\n            allowance[from][spender] = newAllowance;\n\n            emit Approval(from, spender, newAllowance);\n        }\n\n        _transferTokens(from, to, amount);\n        return true;\n    }\n\n    function _transferTokens(uint from, uint to, uint amount) internal {\n        balanceOf[from] -= amount;\n        balanceOf[to] += amount;\n\n        emit Transfer(from, to, amount);\n    }\n}",
  "sourcePath": "/Users/hristotodorov/Documents/Personal/Rarity/contracts/gold.sol",
  "compiler": {
    "name": "solc",
    "version": "0.8.7+commit.e28d00a7.Emscripten.clang"
  },
  "schemaVersion": "3.4.3",
  "updatedAt": "2021-09-14T11:17:16.343Z",
  "networkType": "ethereum",
  "devdoc": {
    "kind": "dev",
    "methods": {},
    "version": 1
  },
  "userdoc": {
    "kind": "user",
    "methods": {},
    "version": 1
  }
}